{
 "scheduleData": "0x01d5062a0000000000000000000000000f99738b2fc14d77308337f3e2596b63ae7bcc4a000000000000000000000000000000000000000000000000000000000000000000000000000000000000000000000000000000000000000000000000000000c00000000000000000000000000000000000000000000000000000000000000000000000000000000000000000000000000000000000000000000000000000000000000000000000000000000000000000000000000000000000000000000d2f0000000000000000000000000000000000000000000000000000000000000000a49623609d0000000000000000000000005132a183e9f3cb7c848b0aac5ae0c4f0491b7ab2000000000000000000000000a33619940bceb9be7c9679dd80fa2918c2476382000000000000000000000000000000000000000000000000000000000000006000000000000000000000000000000000000000000000000000000000000000048129fc1c0000000000000000000000000000000000000000000000000000000000000000000000000000000000000000000000000000000000000000",
 "executeData": "0x134008d30000000000000000000000000f99738b2fc14d77308337f3e2596b63ae7bcc4a000000000000000000000000000000000000000000000000000000000000000000000000000000000000000000000000000000000000000000000000000000a00000000000000000000000000000000000000000000000000000000000000000000000000000000000000000000000000000000000000000000000000000000000000000000000000000000000000000000000000000000000000000000000a49623609d0000000000000000000000005132a183e9f3cb7c848b0aac5ae0c4f0491b7ab2000000000000000000000000a33619940bceb9be7c9679dd80fa2918c2476382000000000000000000000000000000000000000000000000000000000000006000000000000000000000000000000000000000000000000000000000000000048129fc1c0000000000000000000000000000000000000000000000000000000000000000000000000000000000000000000000000000000000000000",
 "timelockContractAddress": "0xEf1462451C30Ea7aD8555386226059Fe837CA4EF",
 "decodedScheduleData": {
  "target": "0x0F99738B2Fc14D77308337f3e2596b63aE7BCC4A",
  "value": "0",
  "data": "0x9623609d0000000000000000000000005132a183e9f3cb7c848b0aac5ae0c4f0491b7ab2000000000000000000000000a33619940bceb9be7c9679dd80fa2918c2476382000000000000000000000000000000000000000000000000000000000000006000000000000000000000000000000000000000000000000000000000000000048129fc1c00000000000000000000000000000000000000000000000000000000",
  "decodedData": {
   "signature": "upgradeAndCall(address,address,bytes)",
   "selector": "0x9623609d",
   "proxy": "0x5132A183E9F3CB7C848b0AAC5Ae0c4f0491B7aB2",
   "implementation": "0xA33619940bceb9be7c9679Dd80FA2918C2476382",
   "data": "0x8129fc1c"
  },
  "predecessor": "0x0000000000000000000000000000000000000000000000000000000000000000",
  "salt": "0x0000000000000000000000000000000000000000000000000000000000000000",
  "delay": "864000"
 }
}