{
 "genesis": "0xe3a7d8bae497945ba8ddc51c69564f60ad4c1a990b9c7bdbd27f7929bfa8f272",
 "verifierAddress": "0xE00a3cBFC45241b33c0A44C78e26168CBc55EC63",
 "consensusContract": "PolygonPessimisticConsensus",
 "scheduleData": "0x01d5062a0000000000000000000000005132a183e9f3cb7c848b0aac5ae0c4f0491b7ab2000000000000000000000000000000000000000000000000000000000000000000000000000000000000000000000000000000000000000000000000000000c00000000000000000000000000000000000000000000000000000000000000000000000000000000000000000000000000000000000000000000000000000000000000000000000000000000000000000000000000000000000000000000d2f000000000000000000000000000000000000000000000000000000000000000184abcb519800000000000000000000000018c45dd422f6587357a6d3b23307e75d42b2bc5b000000000000000000000000e00a3cbfc45241b33c0a44c78e26168cbc55ec63000000000000000000000000000000000000000000000000000000000000000c0000000000000000000000000000000000000000000000000000000000000001000000000000000000000000000000000000000000000000000000000000000000000000000000000000000000000000000000000000000000000000000000e00062c685702e0582d900f3a19521270c92a58e2588230c4a5cf3b45103f4a5120000000000000000000000000000000000000000000000000000000000000061547970653a2050657373696d69737469632c2056657273696f6e3a2076302e322e312c2067656e657369733a202f697066732f516d55586e526f5062556d5a75455a43477969486a45736f4e6346567533684c74537668706e664253326d4159550000000000000000000000000000000000000000000000000000000000000000000000000000000000000000000000000000000000000000000000",
 "executeData": "0x134008d30000000000000000000000005132a183e9f3cb7c848b0aac5ae0c4f0491b7ab2000000000000000000000000000000000000000000000000000000000000000000000000000000000000000000000000000000000000000000000000000000a0000000000000000000000000000000000000000000000000000000000000000000000000000000000000000000000000000000000000000000000000000000000000000000000000000000000000000000000000000000000000000000000184abcb519800000000000000000000000018c45dd422f6587357a6d3b23307e75d42b2bc5b000000000000000000000000e00a3cbfc45241b33c0a44c78e26168cbc55ec63000000000000000000000000000000000000000000000000000000000000000c0000000000000000000000000000000000000000000000000000000000000001000000000000000000000000000000000000000000000000000000000000000000000000000000000000000000000000000000000000000000000000000000e00062c685702e0582d900f3a19521270c92a58e2588230c4a5cf3b45103f4a5120000000000000000000000000000000000000000000000000000000000000061547970653a2050657373696d69737469632c2056657273696f6e3a2076302e322e312c2067656e657369733a202f697066732f516d55586e526f5062556d5a75455a43477969486a45736f4e6346567533684c74537668706e664253326d4159550000000000000000000000000000000000000000000000000000000000000000000000000000000000000000000000000000000000000000000000",
 "id": "0x56a65b79e3976426b41227c5c6b0b468436873d7d88df553b9e6637811af1d4a",
 "decodedScheduleData": {
  "target": "0x5132A183E9F3CB7C848b0AAC5Ae0c4f0491B7aB2",
  "value": "0",
  "data": "0xabcb519800000000000000000000000018c45dd422f6587357a6d3b23307e75d42b2bc5b000000000000000000000000e00a3cbfc45241b33c0a44c78e26168cbc55ec63000000000000000000000000000000000000000000000000000000000000000c0000000000000000000000000000000000000000000000000000000000000001000000000000000000000000000000000000000000000000000000000000000000000000000000000000000000000000000000000000000000000000000000e00062c685702e0582d900f3a19521270c92a58e2588230c4a5cf3b45103f4a5120000000000000000000000000000000000000000000000000000000000000061547970653a2050657373696d69737469632c2056657273696f6e3a2076302e322e312c2067656e657369733a202f697066732f516d55586e526f5062556d5a75455a43477969486a45736f4e6346567533684c74537668706e664253326d41595500000000000000000000000000000000000000000000000000000000000000",
  "decodedData": {
   "consensusImplementation": "0x18C45DD422f6587357a6d3b23307E75D42b2bc5B",
   "verifier": "0xE00a3cBFC45241b33c0A44C78e26168CBc55EC63",
   "forkID": "12",
   "rollupVerifierType": "1",
   "genesis": "0x0000000000000000000000000000000000000000000000000000000000000000",
   "description": "Type: Pessimistic, Version: v0.2.1, genesis: /ipfs/QmUXnRoPbUmZuEZCGyiHjEsoNcFVu3hLtSvhpnfBS2mAYU",
   "programVKey": "0x0062c685702e0582d900f3a19521270c92a58e2588230c4a5cf3b45103f4a512"
  },
  "predecessor": "0x0000000000000000000000000000000000000000000000000000000000000000",
  "salt": "0x0000000000000000000000000000000000000000000000000000000000000000",
  "delay": "864000"
 }
}